{
  "contractName": "BallCoin",
  "abi": [
    {
      "inputs": [],
      "stateMutability": "nonpayable",
      "type": "constructor"
    },
    {
      "anonymous": false,
      "inputs": [
        {
          "indexed": true,
          "internalType": "address",
          "name": "owner",
          "type": "address"
        },
        {
          "indexed": true,
          "internalType": "address",
          "name": "spender",
          "type": "address"
        },
        {
          "indexed": false,
          "internalType": "uint256",
          "name": "value",
          "type": "uint256"
        }
      ],
      "name": "Approval",
      "type": "event"
    },
    {
      "anonymous": false,
      "inputs": [
        {
          "indexed": true,
          "internalType": "address",
          "name": "_from",
          "type": "address"
        },
        {
          "indexed": true,
          "internalType": "address",
          "name": "_to",
          "type": "address"
        },
        {
          "indexed": false,
          "internalType": "uint256",
          "name": "_number",
          "type": "uint256"
        }
      ],
      "name": "BallTransfer",
      "type": "event"
    },
    {
      "anonymous": false,
      "inputs": [
        {
          "indexed": true,
          "internalType": "address",
          "name": "from",
          "type": "address"
        },
        {
          "indexed": true,
          "internalType": "address",
          "name": "to",
          "type": "address"
        },
        {
          "indexed": false,
          "internalType": "uint256",
          "name": "value",
          "type": "uint256"
        }
      ],
      "name": "Transfer",
      "type": "event"
    },
    {
      "inputs": [
        {
          "internalType": "address",
          "name": "owner",
          "type": "address"
        },
        {
          "internalType": "address",
          "name": "spender",
          "type": "address"
        }
      ],
      "name": "allowance",
      "outputs": [
        {
          "internalType": "uint256",
          "name": "",
          "type": "uint256"
        }
      ],
      "stateMutability": "view",
      "type": "function",
      "constant": true
    },
    {
      "inputs": [
        {
          "internalType": "address",
          "name": "spender",
          "type": "address"
        },
        {
          "internalType": "uint256",
          "name": "amount",
          "type": "uint256"
        }
      ],
      "name": "approve",
      "outputs": [
        {
          "internalType": "bool",
          "name": "",
          "type": "bool"
        }
      ],
      "stateMutability": "nonpayable",
      "type": "function"
    },
    {
      "inputs": [
        {
          "internalType": "address",
          "name": "account",
          "type": "address"
        }
      ],
      "name": "balanceOf",
      "outputs": [
        {
          "internalType": "uint256",
          "name": "",
          "type": "uint256"
        }
      ],
      "stateMutability": "view",
      "type": "function",
      "constant": true
    },
    {
      "inputs": [],
      "name": "decimals",
      "outputs": [
        {
          "internalType": "uint8",
          "name": "",
          "type": "uint8"
        }
      ],
      "stateMutability": "view",
      "type": "function",
      "constant": true
    },
    {
      "inputs": [
        {
          "internalType": "address",
          "name": "spender",
          "type": "address"
        },
        {
          "internalType": "uint256",
          "name": "subtractedValue",
          "type": "uint256"
        }
      ],
      "name": "decreaseAllowance",
      "outputs": [
        {
          "internalType": "bool",
          "name": "",
          "type": "bool"
        }
      ],
      "stateMutability": "nonpayable",
      "type": "function"
    },
    {
      "inputs": [
        {
          "internalType": "address",
          "name": "spender",
          "type": "address"
        },
        {
          "internalType": "uint256",
          "name": "addedValue",
          "type": "uint256"
        }
      ],
      "name": "increaseAllowance",
      "outputs": [
        {
          "internalType": "bool",
          "name": "",
          "type": "bool"
        }
      ],
      "stateMutability": "nonpayable",
      "type": "function"
    },
    {
      "inputs": [],
      "name": "name",
      "outputs": [
        {
          "internalType": "string",
          "name": "",
          "type": "string"
        }
      ],
      "stateMutability": "view",
      "type": "function",
      "constant": true
    },
    {
      "inputs": [
        {
          "internalType": "address",
          "name": "",
          "type": "address"
        }
      ],
      "name": "numBalls",
      "outputs": [
        {
          "internalType": "uint256",
          "name": "",
          "type": "uint256"
        }
      ],
      "stateMutability": "view",
      "type": "function",
      "constant": true
    },
    {
      "inputs": [],
      "name": "symbol",
      "outputs": [
        {
          "internalType": "string",
          "name": "",
          "type": "string"
        }
      ],
      "stateMutability": "view",
      "type": "function",
      "constant": true
    },
    {
      "inputs": [],
      "name": "totalSupply",
      "outputs": [
        {
          "internalType": "uint256",
          "name": "",
          "type": "uint256"
        }
      ],
      "stateMutability": "view",
      "type": "function",
      "constant": true
    },
    {
      "inputs": [
        {
          "internalType": "address",
          "name": "recipient",
          "type": "address"
        },
        {
          "internalType": "uint256",
          "name": "amount",
          "type": "uint256"
        }
      ],
      "name": "transfer",
      "outputs": [
        {
          "internalType": "bool",
          "name": "",
          "type": "bool"
        }
      ],
      "stateMutability": "nonpayable",
      "type": "function"
    },
    {
      "inputs": [
        {
          "internalType": "address",
          "name": "sender",
          "type": "address"
        },
        {
          "internalType": "address",
          "name": "recipient",
          "type": "address"
        },
        {
          "internalType": "uint256",
          "name": "amount",
          "type": "uint256"
        }
      ],
      "name": "transferFrom",
      "outputs": [
        {
          "internalType": "bool",
          "name": "",
          "type": "bool"
        }
      ],
      "stateMutability": "nonpayable",
      "type": "function"
    },
    {
      "inputs": [
        {
          "internalType": "address",
          "name": "receiver",
          "type": "address"
        },
        {
          "internalType": "uint256",
          "name": "amount",
          "type": "uint256"
        }
      ],
      "name": "sendCoin",
      "outputs": [
        {
          "internalType": "bool",
          "name": "sufficient",
          "type": "bool"
        }
      ],
      "stateMutability": "nonpayable",
      "type": "function"
    },
    {
      "inputs": [
        {
          "internalType": "address",
          "name": "_receiver",
          "type": "address"
        },
        {
          "internalType": "uint256",
          "name": "_number",
          "type": "uint256"
        }
      ],
      "name": "sendBall",
      "outputs": [
        {
          "internalType": "bool",
          "name": "sufficient",
          "type": "bool"
        }
      ],
      "stateMutability": "nonpayable",
      "type": "function"
    },
    {
      "inputs": [
        {
          "internalType": "address",
          "name": "addr",
          "type": "address"
        }
      ],
      "name": "getBalanceInEth",
      "outputs": [
        {
          "internalType": "uint256",
          "name": "",
          "type": "uint256"
        }
      ],
      "stateMutability": "view",
      "type": "function",
      "constant": true
    },
    {
      "inputs": [
        {
          "internalType": "address",
          "name": "addr",
          "type": "address"
        }
      ],
      "name": "getBalance",
      "outputs": [
        {
          "internalType": "uint256",
          "name": "",
          "type": "uint256"
        }
      ],
      "stateMutability": "view",
      "type": "function",
      "constant": true
    },
    {
      "inputs": [
        {
          "internalType": "address",
          "name": "_addr",
          "type": "address"
        }
      ],
      "name": "getBall",
      "outputs": [
        {
          "internalType": "uint256",
          "name": "",
          "type": "uint256"
        }
      ],
      "stateMutability": "view",
      "type": "function",
      "constant": true
    }
  ],
  "bytecode": "0x60806040523480156200001157600080fd5b506040518060400160405280600881526020017f42616c6c436f696e0000000000000000000000000000000000000000000000008152506040518060400160405280600381526020017f424c43000000000000000000000000000000000000000000000000000000000081525081600390805190602001906200009692919062000311565b508060049080519060200190620000af92919062000311565b505050612710600560003273ffffffffffffffffffffffffffffffffffffffff1673ffffffffffffffffffffffffffffffffffffffff168152602001908152602001600020819055506003600660003273ffffffffffffffffffffffffffffffffffffffff1673ffffffffffffffffffffffffffffffffffffffff168152602001908152602001600020819055506200017f33620001526200018560201b60201c565b60ff16600a6200016391906200054e565b620f42406200017391906200059f565b6200018e60201b60201c565b62000773565b60006012905090565b600073ffffffffffffffffffffffffffffffffffffffff168273ffffffffffffffffffffffffffffffffffffffff16141562000201576040517f08c379a0000000000000000000000000000000000000000000000000000000008152600401620001f89062000661565b60405180910390fd5b62000215600083836200030760201b60201c565b806002600082825462000229919062000683565b92505081905550806000808473ffffffffffffffffffffffffffffffffffffffff1673ffffffffffffffffffffffffffffffffffffffff168152602001908152602001600020600082825462000280919062000683565b925050819055508173ffffffffffffffffffffffffffffffffffffffff16600073ffffffffffffffffffffffffffffffffffffffff167fddf252ad1be2c89b69c2b068fc378daa952ba7f163c4a11628f55a4df523b3ef83604051620002e79190620006f1565b60405180910390a362000303600083836200030c60201b60201c565b5050565b505050565b505050565b8280546200031f906200073d565b90600052602060002090601f0160209004810192826200034357600085556200038f565b82601f106200035e57805160ff19168380011785556200038f565b828001600101855582156200038f579182015b828111156200038e57825182559160200191906001019062000371565b5b5090506200039e9190620003a2565b5090565b5b80821115620003bd576000816000905550600101620003a3565b5090565b7f4e487b7100000000000000000000000000000000000000000000000000000000600052601160045260246000fd5b60008160011c9050919050565b6000808291508390505b60018511156200044f57808604811115620004275762000426620003c1565b5b6001851615620004375780820291505b80810290506200044785620003f0565b945062000407565b94509492505050565b6000826200046a57600190506200053d565b816200047a57600090506200053d565b81600181146200049357600281146200049e57620004d4565b60019150506200053d565b60ff841115620004b357620004b2620003c1565b5b8360020a915084821115620004cd57620004cc620003c1565b5b506200053d565b5060208310610133831016604e8410600b84101617156200050e5782820a905083811115620005085762000507620003c1565b5b6200053d565b6200051d8484846001620003fd565b92509050818404811115620005375762000536620003c1565b5b81810290505b9392505050565b6000819050919050565b60006200055b8262000544565b9150620005688362000544565b9250620005977fffffffffffffffffffffffffffffffffffffffffffffffffffffffffffffffff848462000458565b905092915050565b6000620005ac8262000544565b9150620005b98362000544565b9250817fffffffffffffffffffffffffffffffffffffffffffffffffffffffffffffffff0483118215151615620005f557620005f4620003c1565b5b828202905092915050565b600082825260208201905092915050565b7f45524332303a206d696e7420746f20746865207a65726f206164647265737300600082015250565b600062000649601f8362000600565b9150620006568262000611565b602082019050919050565b600060208201905081810360008301526200067c816200063a565b9050919050565b6000620006908262000544565b91506200069d8362000544565b9250827fffffffffffffffffffffffffffffffffffffffffffffffffffffffffffffffff03821115620006d557620006d4620003c1565b5b828201905092915050565b620006eb8162000544565b82525050565b6000602082019050620007086000830184620006e0565b92915050565b7f4e487b7100000000000000000000000000000000000000000000000000000000600052602260045260246000fd5b600060028204905060018216806200075657607f821691505b602082108114156200076d576200076c6200070e565b5b50919050565b611a3b80620007836000396000f3fe608060405234801561001057600080fd5b506004361061010b5760003560e01c80637bd703e8116100a2578063a1ff5a1e11610071578063a1ff5a1e14610308578063a457c2d714610338578063a9059cbb14610368578063dd62ed3e14610398578063f8b2cb4f146103c85761010b565b80637bd703e81461025a57806387922a531461028a57806390b98a11146102ba57806395d89b41146102ea5761010b565b8063313ce567116100de578063313ce567146101ac57806339509351146101ca57806370a08231146101fa57806376c049241461022a5761010b565b806306fdde0314610110578063095ea7b31461012e57806318160ddd1461015e57806323b872dd1461017c575b600080fd5b6101186103f8565b60405161012591906111dc565b60405180910390f35b61014860048036038101906101439190611297565b61048a565b60405161015591906112f2565b60405180910390f35b6101666104a8565b604051610173919061131c565b60405180910390f35b61019660048036038101906101919190611337565b6104b2565b6040516101a391906112f2565b60405180910390f35b6101b46105aa565b6040516101c191906113a6565b60405180910390f35b6101e460048036038101906101df9190611297565b6105b3565b6040516101f191906112f2565b60405180910390f35b610214600480360381019061020f91906113c1565b61065f565b604051610221919061131c565b60405180910390f35b610244600480360381019061023f91906113c1565b6106a7565b604051610251919061131c565b60405180910390f35b610274600480360381019061026f91906113c1565b6106bf565b604051610281919061131c565b60405180910390f35b6102a4600480360381019061029f9190611297565b61075a565b6040516102b191906112f2565b60405180910390f35b6102d460048036038101906102cf9190611297565b6108c3565b6040516102e191906112f2565b60405180910390f35b6102f2610a31565b6040516102ff91906111dc565b60405180910390f35b610322600480360381019061031d91906113c1565b610ac3565b60405161032f919061131c565b60405180910390f35b610352600480360381019061034d9190611297565b610b0c565b60405161035f91906112f2565b60405180910390f35b610382600480360381019061037d9190611297565b610bf7565b60405161038f91906112f2565b60405180910390f35b6103b260048036038101906103ad91906113ee565b610c15565b6040516103bf919061131c565b60405180910390f35b6103e260048036038101906103dd91906113c1565b610c9c565b6040516103ef919061131c565b60405180910390f35b6060600380546104079061145d565b80601f01602080910402602001604051908101604052809291908181526020018280546104339061145d565b80156104805780601f1061045557610100808354040283529160200191610480565b820191906000526020600020905b81548152906001019060200180831161046357829003601f168201915b5050505050905090565b600061049e610497610ce5565b8484610ced565b6001905092915050565b6000600254905090565b60006104bf848484610eb8565b6000600160008673ffffffffffffffffffffffffffffffffffffffff1673ffffffffffffffffffffffffffffffffffffffff168152602001908152602001600020600061050a610ce5565b73ffffffffffffffffffffffffffffffffffffffff1673ffffffffffffffffffffffffffffffffffffffff1681526020019081526020016000205490508281101561058a576040517f08c379a000000000000000000000000000000000000000000000000000000000815260040161058190611501565b60405180910390fd5b61059e85610596610ce5565b858403610ced565b60019150509392505050565b60006012905090565b60006106556105c0610ce5565b8484600160006105ce610ce5565b73ffffffffffffffffffffffffffffffffffffffff1673ffffffffffffffffffffffffffffffffffffffff16815260200190815260200160002060008873ffffffffffffffffffffffffffffffffffffffff1673ffffffffffffffffffffffffffffffffffffffff168152602001908152602001600020546106509190611550565b610ced565b6001905092915050565b60008060008373ffffffffffffffffffffffffffffffffffffffff1673ffffffffffffffffffffffffffffffffffffffff168152602001908152602001600020549050919050565b60066020528060005260406000206000915090505481565b600073__ConvertLib____________________________6396e4ee3d6106e484610c9c565b60026040518363ffffffff1660e01b81526004016107039291906115fa565b60206040518083038186803b15801561071b57600080fd5b505af415801561072f573d6000803e3d6000fd5b505050506040513d601f19601f820116820180604052508101906107539190611638565b9050919050565b600081600660003373ffffffffffffffffffffffffffffffffffffffff1673ffffffffffffffffffffffffffffffffffffffff1681526020019081526020016000205410156107a857600080fd5b81600660008573ffffffffffffffffffffffffffffffffffffffff1673ffffffffffffffffffffffffffffffffffffffff16815260200190815260200160002060008282546107f79190611550565b9250508190555081600660003373ffffffffffffffffffffffffffffffffffffffff1673ffffffffffffffffffffffffffffffffffffffff168152602001908152602001600020600082825461084d9190611665565b925050819055508273ffffffffffffffffffffffffffffffffffffffff163373ffffffffffffffffffffffffffffffffffffffff167f2ece0a92a601a8b61754789cb13f5f7feea313fb0379a8cd5bc0d05f57bac260846040516108b1919061131c565b60405180910390a36001905092915050565b600081600560003373ffffffffffffffffffffffffffffffffffffffff1673ffffffffffffffffffffffffffffffffffffffff1681526020019081526020016000205410156109155760009050610a2b565b81600560003373ffffffffffffffffffffffffffffffffffffffff1673ffffffffffffffffffffffffffffffffffffffff16815260200190815260200160002060008282546109649190611665565b9250508190555081600560008573ffffffffffffffffffffffffffffffffffffffff1673ffffffffffffffffffffffffffffffffffffffff16815260200190815260200160002060008282546109ba9190611550565b925050819055508273ffffffffffffffffffffffffffffffffffffffff163373ffffffffffffffffffffffffffffffffffffffff167fddf252ad1be2c89b69c2b068fc378daa952ba7f163c4a11628f55a4df523b3ef84604051610a1e919061131c565b60405180910390a3600190505b92915050565b606060048054610a409061145d565b80601f0160208091040260200160405190810160405280929190818152602001828054610a6c9061145d565b8015610ab95780601f10610a8e57610100808354040283529160200191610ab9565b820191906000526020600020905b815481529060010190602001808311610a9c57829003601f168201915b5050505050905090565b6000600660008373ffffffffffffffffffffffffffffffffffffffff1673ffffffffffffffffffffffffffffffffffffffff168152602001908152602001600020549050919050565b60008060016000610b1b610ce5565b73ffffffffffffffffffffffffffffffffffffffff1673ffffffffffffffffffffffffffffffffffffffff16815260200190815260200160002060008573ffffffffffffffffffffffffffffffffffffffff1673ffffffffffffffffffffffffffffffffffffffff16815260200190815260200160002054905082811015610bd8576040517f08c379a0000000000000000000000000000000000000000000000000000000008152600401610bcf9061170b565b60405180910390fd5b610bec610be3610ce5565b85858403610ced565b600191505092915050565b6000610c0b610c04610ce5565b8484610eb8565b6001905092915050565b6000600160008473ffffffffffffffffffffffffffffffffffffffff1673ffffffffffffffffffffffffffffffffffffffff16815260200190815260200160002060008373ffffffffffffffffffffffffffffffffffffffff1673ffffffffffffffffffffffffffffffffffffffff16815260200190815260200160002054905092915050565b6000600560008373ffffffffffffffffffffffffffffffffffffffff1673ffffffffffffffffffffffffffffffffffffffff168152602001908152602001600020549050919050565b600033905090565b600073ffffffffffffffffffffffffffffffffffffffff168373ffffffffffffffffffffffffffffffffffffffff161415610d5d576040517f08c379a0000000000000000000000000000000000000000000000000000000008152600401610d549061179d565b60405180910390fd5b600073ffffffffffffffffffffffffffffffffffffffff168273ffffffffffffffffffffffffffffffffffffffff161415610dcd576040517f08c379a0000000000000000000000000000000000000000000000000000000008152600401610dc49061182f565b60405180910390fd5b80600160008573ffffffffffffffffffffffffffffffffffffffff1673ffffffffffffffffffffffffffffffffffffffff16815260200190815260200160002060008473ffffffffffffffffffffffffffffffffffffffff1673ffffffffffffffffffffffffffffffffffffffff168152602001908152602001600020819055508173ffffffffffffffffffffffffffffffffffffffff168373ffffffffffffffffffffffffffffffffffffffff167f8c5be1e5ebec7d5bd14f71427d1e84f3dd0314c0f7b2291e5b200ac8c7c3b92583604051610eab919061131c565b60405180910390a3505050565b600073ffffffffffffffffffffffffffffffffffffffff168373ffffffffffffffffffffffffffffffffffffffff161415610f28576040517f08c379a0000000000000000000000000000000000000000000000000000000008152600401610f1f906118c1565b60405180910390fd5b600073ffffffffffffffffffffffffffffffffffffffff168273ffffffffffffffffffffffffffffffffffffffff161415610f98576040517f08c379a0000000000000000000000000000000000000000000000000000000008152600401610f8f90611953565b60405180910390fd5b610fa3838383611139565b60008060008573ffffffffffffffffffffffffffffffffffffffff1673ffffffffffffffffffffffffffffffffffffffff16815260200190815260200160002054905081811015611029576040517f08c379a0000000000000000000000000000000000000000000000000000000008152600401611020906119e5565b60405180910390fd5b8181036000808673ffffffffffffffffffffffffffffffffffffffff1673ffffffffffffffffffffffffffffffffffffffff16815260200190815260200160002081905550816000808573ffffffffffffffffffffffffffffffffffffffff1673ffffffffffffffffffffffffffffffffffffffff16815260200190815260200160002060008282546110bc9190611550565b925050819055508273ffffffffffffffffffffffffffffffffffffffff168473ffffffffffffffffffffffffffffffffffffffff167fddf252ad1be2c89b69c2b068fc378daa952ba7f163c4a11628f55a4df523b3ef84604051611120919061131c565b60405180910390a361113384848461113e565b50505050565b505050565b505050565b600081519050919050565b600082825260208201905092915050565b60005b8381101561117d578082015181840152602081019050611162565b8381111561118c576000848401525b50505050565b6000601f19601f8301169050919050565b60006111ae82611143565b6111b8818561114e565b93506111c881856020860161115f565b6111d181611192565b840191505092915050565b600060208201905081810360008301526111f681846111a3565b905092915050565b600080fd5b600073ffffffffffffffffffffffffffffffffffffffff82169050919050565b600061122e82611203565b9050919050565b61123e81611223565b811461124957600080fd5b50565b60008135905061125b81611235565b92915050565b6000819050919050565b61127481611261565b811461127f57600080fd5b50565b6000813590506112918161126b565b92915050565b600080604083850312156112ae576112ad6111fe565b5b60006112bc8582860161124c565b92505060206112cd85828601611282565b9150509250929050565b60008115159050919050565b6112ec816112d7565b82525050565b600060208201905061130760008301846112e3565b92915050565b61131681611261565b82525050565b6000602082019050611331600083018461130d565b92915050565b6000806000606084860312156113505761134f6111fe565b5b600061135e8682870161124c565b935050602061136f8682870161124c565b925050604061138086828701611282565b9150509250925092565b600060ff82169050919050565b6113a08161138a565b82525050565b60006020820190506113bb6000830184611397565b92915050565b6000602082840312156113d7576113d66111fe565b5b60006113e58482850161124c565b91505092915050565b60008060408385031215611405576114046111fe565b5b60006114138582860161124c565b92505060206114248582860161124c565b9150509250929050565b7f4e487b7100000000000000000000000000000000000000000000000000000000600052602260045260246000fd5b6000600282049050600182168061147557607f821691505b602082108114156114895761148861142e565b5b50919050565b7f45524332303a207472616e7366657220616d6f756e742065786365656473206160008201527f6c6c6f77616e6365000000000000000000000000000000000000000000000000602082015250565b60006114eb60288361114e565b91506114f68261148f565b604082019050919050565b6000602082019050818103600083015261151a816114de565b9050919050565b7f4e487b7100000000000000000000000000000000000000000000000000000000600052601160045260246000fd5b600061155b82611261565b915061156683611261565b9250827fffffffffffffffffffffffffffffffffffffffffffffffffffffffffffffffff0382111561159b5761159a611521565b5b828201905092915050565b6115af81611261565b82525050565b6000819050919050565b6000819050919050565b60006115e46115df6115da846115b5565b6115bf565b611261565b9050919050565b6115f4816115c9565b82525050565b600060408201905061160f60008301856115a6565b61161c60208301846115eb565b9392505050565b6000815190506116328161126b565b92915050565b60006020828403121561164e5761164d6111fe565b5b600061165c84828501611623565b91505092915050565b600061167082611261565b915061167b83611261565b92508282101561168e5761168d611521565b5b828203905092915050565b7f45524332303a2064656372656173656420616c6c6f77616e63652062656c6f7760008201527f207a65726f000000000000000000000000000000000000000000000000000000602082015250565b60006116f560258361114e565b915061170082611699565b604082019050919050565b60006020820190508181036000830152611724816116e8565b9050919050565b7f45524332303a20617070726f76652066726f6d20746865207a65726f2061646460008201527f7265737300000000000000000000000000000000000000000000000000000000602082015250565b600061178760248361114e565b91506117928261172b565b604082019050919050565b600060208201905081810360008301526117b68161177a565b9050919050565b7f45524332303a20617070726f766520746f20746865207a65726f20616464726560008201527f7373000000000000000000000000000000000000000000000000000000000000602082015250565b600061181960228361114e565b9150611824826117bd565b604082019050919050565b600060208201905081810360008301526118488161180c565b9050919050565b7f45524332303a207472616e736665722066726f6d20746865207a65726f20616460008201527f6472657373000000000000000000000000000000000000000000000000000000602082015250565b60006118ab60258361114e565b91506118b68261184f565b604082019050919050565b600060208201905081810360008301526118da8161189e565b9050919050565b7f45524332303a207472616e7366657220746f20746865207a65726f206164647260008201527f6573730000000000000000000000000000000000000000000000000000000000602082015250565b600061193d60238361114e565b9150611948826118e1565b604082019050919050565b6000602082019050818103600083015261196c81611930565b9050919050565b7f45524332303a207472616e7366657220616d6f756e742065786365656473206260008201527f616c616e63650000000000000000000000000000000000000000000000000000602082015250565b60006119cf60268361114e565b91506119da82611973565b604082019050919050565b600060208201905081810360008301526119fe816119c2565b905091905056fea26469706673582212208e8a8ecd422813150355a34991295f34fb374a59c8194219c46a8ab09776e2f764736f6c63430008090033",
  "immutableReferences": {},
  "source": "// SPDX-License-Identifier: MIT\npragma solidity >=0.4.25;\n\nimport \"./ConvertLib.sol\";\nimport \"@openzeppelin/contracts/token/ERC20/ERC20.sol\";\n\n// This is just a simple example of a coin-like contract.\n// It is not standards compatible and cannot be expected to talk to other\n// coin/token contracts. If you want to create a standards-compliant\n// token, see: https://github.com/ConsenSys/Tokens. Cheers!\n\ncontract BallCoin is ERC20 {\n\tmapping (address => uint) balances;\n\tmapping (address => uint) public numBalls;\n\n\tevent BallTransfer(address indexed _from, address indexed _to, uint256 _number);\n\n\tconstructor() public ERC20(\"BallCoin\", \"BLC\") {\n\t\tbalances[tx.origin] = 10000;\n\t\tnumBalls[tx.origin] = 3;\n\t\t_mint(msg.sender, 1000000 * (10 ** uint256(decimals())));\n\t}\n\n\tfunction sendCoin(address receiver, uint amount) public returns(bool sufficient) {\n\t\tif (balances[msg.sender] < amount) return false;\n\t\tbalances[msg.sender] -= amount;\n\t\tbalances[receiver] += amount;\n\t\temit Transfer(msg.sender, receiver, amount);\n\t\treturn true;\n\t}\n\n\tfunction sendBall(address _receiver, uint _number) public returns(bool sufficient) {\n\t\trequire(numBalls[msg.sender] >= _number);\n\t\tnumBalls[_receiver] += _number;\n\t\tnumBalls[msg.sender] -= _number;\n\t\temit BallTransfer(msg.sender, _receiver, _number);\n\t\treturn true;\n\t}\n\n\tfunction getBalanceInEth(address addr) public view returns(uint){\n\t\treturn ConvertLib.convert(getBalance(addr),2);\n\t}\n\n\tfunction getBalance(address addr) public view returns(uint) {\n\t\treturn balances[addr];\n\t}\n\n\tfunction getBall(address _addr) public view returns(uint) {\n\t\treturn numBalls[_addr];\n\t}\n}\n",
  "sourcePath": "/Users/tobias/Code/ballcoin/contracts/BallCoin.sol",
  "compiler": {
    "name": "solc",
    "version": "0.8.9+commit.e5eed63a.Emscripten.clang"
  },
  "schemaVersion": "3.4.3",
  "updatedAt": "2021-11-01T14:50:17.155Z",
  "networkType": "ethereum",
  "devdoc": {
    "kind": "dev",
    "methods": {
      "allowance(address,address)": {
        "details": "See {IERC20-allowance}."
      },
      "approve(address,uint256)": {
        "details": "See {IERC20-approve}. Requirements: - `spender` cannot be the zero address."
      },
      "balanceOf(address)": {
        "details": "See {IERC20-balanceOf}."
      },
      "decimals()": {
        "details": "Returns the number of decimals used to get its user representation. For example, if `decimals` equals `2`, a balance of `505` tokens should be displayed to a user as `5.05` (`505 / 10 ** 2`). Tokens usually opt for a value of 18, imitating the relationship between Ether and Wei. This is the value {ERC20} uses, unless this function is overridden; NOTE: This information is only used for _display_ purposes: it in no way affects any of the arithmetic of the contract, including {IERC20-balanceOf} and {IERC20-transfer}."
      },
      "decreaseAllowance(address,uint256)": {
        "details": "Atomically decreases the allowance granted to `spender` by the caller. This is an alternative to {approve} that can be used as a mitigation for problems described in {IERC20-approve}. Emits an {Approval} event indicating the updated allowance. Requirements: - `spender` cannot be the zero address. - `spender` must have allowance for the caller of at least `subtractedValue`."
      },
      "increaseAllowance(address,uint256)": {
        "details": "Atomically increases the allowance granted to `spender` by the caller. This is an alternative to {approve} that can be used as a mitigation for problems described in {IERC20-approve}. Emits an {Approval} event indicating the updated allowance. Requirements: - `spender` cannot be the zero address."
      },
      "name()": {
        "details": "Returns the name of the token."
      },
      "symbol()": {
        "details": "Returns the symbol of the token, usually a shorter version of the name."
      },
      "totalSupply()": {
        "details": "See {IERC20-totalSupply}."
      },
      "transfer(address,uint256)": {
        "details": "See {IERC20-transfer}. Requirements: - `recipient` cannot be the zero address. - the caller must have a balance of at least `amount`."
      },
      "transferFrom(address,address,uint256)": {
        "details": "See {IERC20-transferFrom}. Emits an {Approval} event indicating the updated allowance. This is not required by the EIP. See the note at the beginning of {ERC20}. Requirements: - `sender` and `recipient` cannot be the zero address. - `sender` must have a balance of at least `amount`. - the caller must have allowance for ``sender``'s tokens of at least `amount`."
      }
    },
    "version": 1
  },
  "userdoc": {
    "kind": "user",
    "methods": {},
    "version": 1
  }
}